{
  "address": "0xCf7Ed3AccA5a467e9e704C703E8D87F634fB0Fc9",
  "abi": [
    {
      "anonymous": false,
      "inputs": [
        {
          "indexed": false,
          "internalType": "uint256",
          "name": "newValue",
          "type": "uint256"
        }
      ],
      "name": "valueChanged",
      "type": "event"
    },
    {
      "inputs": [],
      "name": "increment",
      "outputs": [],
      "stateMutability": "nonpayable",
      "type": "function"
    },
    {
      "inputs": [],
      "name": "retrive",
      "outputs": [
        {
          "internalType": "uint256",
          "name": "",
          "type": "uint256"
        }
      ],
      "stateMutability": "view",
      "type": "function"
    },
    {
      "inputs": [
        {
          "internalType": "uint256",
          "name": "newValue",
          "type": "uint256"
        }
      ],
      "name": "store",
      "outputs": [],
      "stateMutability": "nonpayable",
      "type": "function"
    },
    {
      "inputs": [],
      "name": "version",
      "outputs": [
        {
          "internalType": "uint256",
          "name": "",
          "type": "uint256"
        }
      ],
      "stateMutability": "pure",
      "type": "function"
    }
  ],
  "transactionHash": "0x3f6d5ffc607478197414b82c9271448710b3aba33f222d3afa26253801b20861",
  "args": [],
  "numDeployments": 1,
  "solcInputHash": "25e7a247cba0a17cb4ea55a94602ab10",
  "bytecode": "0x608060405234801561001057600080fd5b506102a3806100206000396000f3fe608060405234801561001057600080fd5b506004361061004c5760003560e01c806354fd4d50146100515780636057361d1461006f578063a6b7fc5b1461008b578063d09de08a146100a9575b600080fd5b6100596100b3565b604051610066919061016f565b60405180910390f35b610089600480360381019061008491906101bb565b6100bc565b005b6100936100fd565b6040516100a0919061016f565b60405180910390f35b6100b1610106565b005b60006002905090565b806000819055507fc0dd44d3f117c96295a84b2eb7b3f6abe929928d111b030bfb3568f5efa0ff1f816040516100f2919061016f565b60405180910390a150565b60008054905090565b60016000546101159190610217565b6000819055507fc0dd44d3f117c96295a84b2eb7b3f6abe929928d111b030bfb3568f5efa0ff1f60005460405161014c919061016f565b60405180910390a1565b6000819050919050565b61016981610156565b82525050565b60006020820190506101846000830184610160565b92915050565b600080fd5b61019881610156565b81146101a357600080fd5b50565b6000813590506101b58161018f565b92915050565b6000602082840312156101d1576101d061018a565b5b60006101df848285016101a6565b91505092915050565b7f4e487b7100000000000000000000000000000000000000000000000000000000600052601160045260246000fd5b600061022282610156565b915061022d83610156565b9250827fffffffffffffffffffffffffffffffffffffffffffffffffffffffffffffffff03821115610262576102616101e8565b5b82820190509291505056fea2646970667358221220209b490b741fe76e340001319f5f13607264bc28eafddc387e764e799537ef5764736f6c63430008080033",
  "devdoc": {
    "kind": "dev",
    "methods": {},
    "version": 1
  },
  "userdoc": {
    "kind": "user",
    "methods": {},
    "version": 1
  },
  "storageLayout": {
    "storage": [
      {
        "astId": 1243,
        "contract": "contracts/BoxV2.sol:BoxV2",
        "label": "s_vlaue",
        "offset": 0,
        "slot": "0",
        "type": "t_uint256"
      }
    ],
    "types": {
      "t_uint256": {
        "encoding": "inplace",
        "label": "uint256",
        "numberOfBytes": "32"
      }
    }
  }
}